:100000009DC00000B7C00000B5C00000B3C0000034
:10001000B1C00000AFC00000ADC00000ABC0000028
:10002000A9C00000D7C600000C9450090C94180A0F
:10003000A1C000009FC000009DC000009BC0000048
:1000400099C0000097C0000095C0000093C0000058
:1000500091C000008FC000008DC000008BC0000068
:1000600089C0000050C600007BC6000083C00000AD
:1000700081C000007FC000007DC000007BC0000088
:1000800079C0000077C0000075C0000073C0000098
:1000900071C000006FC000006DC000006BC00000A8
:1000A00069C0000067C0000065C000002203540062
:1000B00069006E00790058002000500072006F0047
:1000C0006700720061006D006D0065007200000045
:1000D0001603540069006E007900580042006F005A
:1000E00061007200640000000403090409023E007C
:1000F000020100C0320904000001020201000524CF
:1001000000100104240206052406000107058203ED
:100110000800FF09040100020A00000007050402AC
:1001200010000507058302100005120110010200EE
:100130000008EB03442001000102DC0111241FBE72
:10014000CFEFDAE0DEBFCDBF13E0A0E0B1E0EEEA32
:10015000FAE102C005900D92A035B107D9F72AE067
:10016000A0E5B3E001C01D92AC31B207E1F738D091
:100170000C94550D45CFE0E5F5E0A081B1818C935D
:1001800080819181019691838083268137818217B6
:10019000930721F484819581918380832FB7F8940C
:1001A000828593850196938782872FBF089584B7B0
:1001B000877F84BF0FB6F894A8958091600088610E
:1001C00080936000109260000FBE90E080E80FB650
:1001D000F89480936100909361000FBE0C943309F2
:1001E000E6DFE0E5F5E02FB7F89480E593E0918352
:1001F0008083938382839583848380E595E09783CE
:10020000868380E092E091878087138612862FBFD5
:10021000789469D484E0F82E00E515E080E091E060
:100220000E946E0C97FF0BC02FB7F89480915A056F
:1002300090915B052FBF009709F04FC057C0A8D31E
:10024000039791F780917405883059F180F48230DA
:1002500001F130F4882309F1813049F5F1D029C04A
:10026000843009F1A0F0853011F5C8D122C08F305B
:10027000C1F030F48B3079F08C30C9F4AED119C0B4
:10028000853169F0843389F0843189F404C0F4D075
:1002900010C045D10EC05CD10CC0F09239097ED19E
:1002A00008C080E805C0C1D204C0EDD102C080EA18
:1002B000BFD066E377E089E397E001D3C9E3D7E0F5
:1002C0008091360790E09E0129533740281739075F
:1002D00008F0AACF89914FDFF3CF209101012F7051
:1002E0002093E9002091E80020FD07C080E091E024
:1002F0000E94580C0E94C00B91CF8031910510F0E4
:100300008FE090E0C82FE0915205F0915305608195
:1003100080E091E00E94FF0B8111E8CFF80182811B
:100320009381019693838283268137818217930775
:1003300021F484819581938382832FB7F8948285F9
:1003400093850197938782872FBFC150E1F6CECF67
:100350008BB18F70806A8BB908958BB18F7080617B
:100360008BB9089580E091E00E94DA0B811102C000
:1003700080E901C080E69BB19F70892B8BB90895FD
:1003800080E091E00C94A40C0895292F33272230AB
:10039000310559F02330310569F021303105E9F498
:1003A00082E190E02AE231E01CC08EE390E02CEE86
:1003B00030E017C099278130910549F028F0029765
:1003C00061F4ECEAF0E005C0E8EEF0E002C0E0ED38
:1003D000F0E0849190E09F0104C080E090E020E094
:1003E00030E0FA013183208308950F931F93CF9358
:1003F000DF938C0185E594D380EE92D3E801085F0A
:100400001F4F89918DD3C017D107D9F7DF91CF91B5
:100410001F910F91089510925D0510925C05109246
:100420005F0510925E0510923C0910923B090895F9
:10043000EEE6F5E021E030E0338322838683089501
:1004400082E080933A0984E08093390981E09ED369
:1004500066E082E0E6D38DE190E0909371058093B1
:100460007005EBE1F1E0A4E7B5E081918D9381E0C7
:10047000E833F807D1F7089580917505833071F15D
:10048000A8F4813011F1823009F03FC085E090E09E
:1004900090937105809370051092750586E08093A6
:1004A0007605109277058093780508958530F9F0E8
:1004B000863059F583E090E0909371058093700544
:1004C00088E88093750583E11DC023E030E0309318
:1004D0007105209370058093750514C082E090E04B
:1004E000909371058093700580913A0908C082E06D
:1004F00090E0909371058093700580913909809305
:100500007505089580937605089581E090E09093B5
:1005100071058093700581EA809374050895809138
:100520007505833039F0853049F4809176058093E4
:10053000390904C08091760580933A0981E090E002
:10054000909371058093700580E8809374050895F9
:10055000CFD38BE073D38F7E883031F0823891F423
:1005600080E491E042DFC4D364E080E090E17ED398
:1005700081E090E0909371058093700580E880930E
:100580007405089522E030E03093710520937005E2
:1005900095EA909374058093750508958BE04ED38A
:1005A0008F7E883019F0823811F00BC0A1D381E022
:1005B00090E0909371058093700580E880937405B6
:1005C000089522E030E0309371052093700595EA9C
:1005D00090937405809375050895EEE6F5E080919B
:1005E000680680933D0980916A068093400981E006
:1005F00090E09383828380E886830895EF92FF9250
:100600000F931F93CF93DF938BE018D3883069F05B
:1006100082E090E0909371058093700585EA809365
:10062000740581E08093750527C0C0917605D0914F
:10063000770580917A0590917B0541D38C2F81506D
:10064000E7D238D38093750586E7E82E85E0F82E4B
:1006500002E010E0C017D10738F0B8D2F70181935B
:100660007F010F5F1F4FF6CF2196D0937105C09386
:10067000700582E880937405DF91CF911F910F91EF
:10068000FF90EF900895CF93DF93C0917605D091BE
:10069000770580917505863058F4843060F48111B7
:1006A0001EC088E491E0A1DE23D3DF91CF9150CF2B
:1006B0008830F0F014C082E090E1C9D28370D9F79D
:1006C0006FEFCE01D3D262E080E090E1CFD281E043
:1006D00090E0909371058093700580E807C081E0F9
:1006E00090E0909371058093700580EA8093740583
:1006F000DF91CF9108951F93CF93DF93D82FC92F08
:10070000162F86E090E1DBD2812FE8D280E0E6D29E
:100710008D2FE4D28C2FE2D267E080E090E1DF9170
:10072000CF911F91A3C2EF92FF921F93CF93DF93BC
:10073000182FD62FCFEFC80FAED27C0182E090E108
:1007400086D28370D9F7C701BAD28C2F61D2ED2F30
:10075000F0E0E259FA4F8681C1D2C1E0CD0FD10F4E
:10076000CD1749F0EC2FF0E0E259FA4F8681D8D14D
:100770002DD2CF5FF5CF8C2FDF91CF911F91FF90BE
:10078000EF900895AF92BF92DF92EF92FF920F9396
:100790001F93CF93DF93D82F7B01042FD22E8FD2BC
:1007A000D1959FEF900FD9238D2F90E0E816F90691
:1007B00008F4DE2DDD2389F06AE08D2FB4DF182FD9
:1007C000C7018D1B9109EC0166D27C016D2D80E083
:1007D00090E14CD2C70173D202C0E7011AE0E02ECB
:1007E000F12C2097C1F0612FCE15DF0530F0802F5E
:1007F0009ADF182FCE19DF0905C08C2F94DF182F30
:10080000C0E0D0E048D25C016D2D80E090E12ED2B6
:10081000C50155D2E6CFDF91CF911F910F91FF9087
:10082000EF90DF90BF90AF9008958BE007D28830B3
:1008300069F082E090E0909371058093700585EAFD
:100840008093740581E080937505089590917505F6
:10085000E0917A05F0917B056091760570917705BE
:1008600080E4890F823020F440913D0921E003C0EB
:100870004091400923E0923C50F4903C58F4925B44
:10088000923058F460917E05CF0135DF0EC0945C44
:10089000923018F4CF0176DF08C081E090E09093A9
:1008A00071058093700582EA07C081E090E0909323
:1008B00071058093700580E8809374050895EF9228
:1008C000FF920F931F93CF93DF938C01EB0118825C
:1008D0006FEF7FEF8BE1FCD0BC01888191E0980F36
:1008E0009883F801E80FF11D8BE180833EE6E32E4B
:1008F00035E0F32E988181E0890F8883F70181919B
:100900007F01F801E90FF11D8083E2D0BC01F4E71B
:10091000EF16F5E0FF0671F7888191E0980F988354
:10092000F801E80FF11D8EE08083D2D02EE6E22E92
:1009300025E0F22EA7014E565540FFEFEF1AFF0AB1
:100940006091700570917105288131E0320F388314
:100950004617570750F4F7013581F801E20FF11DF2
:100960003083BC01832FB4D0E5CFF801E20FF11D35
:100970008083888121E0280F2883F801E80FF11D8A
:100980009083DF91CF911F910F91FF90EF90089589
:10099000CF93C82F80915E0590915F05039709F46E
:1009A0003ADD80915C0590915D05CB3141F4009773
:1009B00031F421E030E030935F0520935E059C0127
:1009C000215031092630310570F4FC01E359FA4F0A
:1009D000C083069741F48091700590917105833C26
:1009E000914050F018DD80915C0590915D0507976E
:1009F00019F4CE3009F00FDD80915C0590915D0512
:100A000020917005309171058830910554F0A9014D
:100A1000485F5F4F4817590720F0FC01E459FA4F2F
:100A2000C083A901485F5F4F4817590761F44C2FF5
:100A300050E050933F0940933E0942E050E050930C
:100A40005F0540935E05275F3F4F82179307B1F420
:100A500020913E0930913F093C2B30933F09209370
:100A60003E0940913B0950913C092417350731F468
:100A700023E030E030935F0520935E0520915E0512
:100A800030915F0521303105A9F4892B21F46FEFF6
:100A90007FEF8BE105C060913B0970913C098C2F81
:100AA00017D090933C0980933B0980915C0590910D
:100AB0005D0503C02230310529F4019690935D0550
:100AC00080935C0580915E0590915F05CF910895BC
:100AD0008627E82FF0E0EE0FFF1FE05BFE4F8081DE
:100AE00087279181089582EC84BD81E286BD82E2F0
:100AF00087BD81E085BD0895A99BFECF82E085BBBF
:100B00000895CF9384E085BD80E487BDCBE0F4DF1A
:100B1000C150E9F782EC84BDEFDF2798CF910895AB
:100B2000FF920F931F93CF93DF93182FE5DF15BC30
:100B300082E287BD81E286BD82E884BD81E085BD19
:100B4000279A82E085BBC1E0D0E002E882ECF82E73
:100B5000812F8C2319F0F4BCD09501C004BDCCDFEB
:100B6000CC0FB1F7DD2311F082EC01C082E884BD27
:100B7000C3DF82EC84BDC0DF85E487BD2798812F69
:100B8000DF91CF911F910F91FF900895CF9315BCE6
:100B900092E297BD91E296BDC2E8C4BD91E095BDD9
:100BA000279A92E095BB882331F0813031F4A9DF98
:100BB000C4BDA2DF279AA5DF9FDF82E287BD81E265
:100BC00086BD81E085BD80E0CF910895CF93DF930E
:100BD00015BC80E187BD8CE086BD82E085BB2F9887
:100BE0001F99FECF81E085BD87DF82E287BDC1E02E
:100BF000D0E082DF1F99DC2BCC0FD9F77DDF86E5B3
:100C000087BD1F9BFECF2F9A8D2FDF91CF91089527
:100C1000CF93C82F85E584DF80EA82DF8C2FCF91C8
:100C20007FCFCF93DF93D82FC62F85E579DF80EC78
:100C30008D0F76DF8C2FDF91CF9172CFCF93C82F9E
:100C400085E56EDF80E88C0F6BDFCF91BFCFCF9350
:100C5000DF93D82FC92F85E563DF84E061DF8D2F17
:100C60005FDF8C2F5DDFDF91CF91B0CF1F93CF93EC
:100C7000DF93182FD92FC62F85E552DF84E450DF8C
:100C8000812F4EDF8D2F4CDFA1DF8C2F49DFDF91CD
:100C9000CF911F919BCFCF9385E542DF89E240DF63
:100CA00095DFC82F93DF2C2F30E0A901582BCA0104
:100CB000CF91089585E534DF84E232DF87CFCF938B
:100CC000DF93D82FC92F85E52BDF89E629DF8D2F0C
:100CD00027DF8C2F25DFDF91CF9178CFCF93C82FDF
:100CE00085E51EDF84E61CDF8C2F1ADFCF916ECFE7
:100CF00069E588E096DF60E088E093DF8BE09EDFC7
:100D00008E70E1F308951F920F920FB60F92112487
:100D10002F938F939F93EF93FF938091C80082FD51
:100D200013C09091CE008091C4098F5F8F73209182
:100D3000C309821759F0E091C409F0E0EE57F64F6D
:100D400090838093C40902C08091CE00FF91EF91FF
:100D50009F918F912F910F900FBE0F901F9018951C
:100D60001F920F920FB60F9211242F938F939F9380
:100D7000EF93FF93E0914109F0E0EE5BF64F2081A5
:100D80008091410990E001968F73992780934109E2
:100D90002093CE00E8ECF0E0808183708064808353
:100DA0008091C20980914109FF91EF919F918F91AC
:100DB0002F910F900FBE0F901F901895892B21F047
:100DC00080916B00806203C080916B008F7D809367
:100DD0006B0008951F920F920FB60F9211242F935C
:100DE0003F934F935F936F937F938F939F93AF93B3
:100DF000BF93EF93FF932F933F934F935F936F9323
:100E00007F93AF93BF938091600590916105892B8B
:100E100029F083B185FB882780F906C083B185FB63
:100E2000992790F981E08927882309F440C080E060
:100E300090E0C4DF80916A0590916B050197F1F70E
:100E4000409168055091690588E020E0FA013197EA
:100E5000F1F726951D9920688150C1F780916005B2
:100E600090916105892B09F0209580916D0590E0A6
:100E700001968F73992730916C05381749F0E091EE
:100E80006D05F0E0EB53F64F208380936D0506C0AF
:100E900081E090E090936305809362058091660500
:100EA000909167050197F1F781E090E087DFBF91AE
:100EB000AF917F916F915F914F913F912F91FF91F2
:100EC000EF91BF91AF919F918F917F916F915F91C2
:100ED0004F913F912F910F900FBE0F901F9018953B
:100EE00020911A0A30911B0A2617370748F061151E
:100EF000710539F42091E8002E772093E80001C0B5
:100F0000B901FC0120E06115710579F18091130AA6
:100F10008823F1F18530F1F18091E80083FD3CC038
:100F20008091E80082FD2EC08091E80080FFEBCF29
:100F30002091F3008091F20090E0922B61157105F1
:100F400051F08830910538F421912093F1006150DF
:100F500071090196F3CF21E0089709F020E0809114
:100F6000E8008E778093E800CECF2111CFCF0AC062
:100F70008091130A882361F0853061F08091E80048
:100F800083FD0AC08091E80082FFF2CF80E00895DF
:100F900082E0089583E0089581E0089520911A0A7F
:100FA00030911B0A2617370748F06115710539F48F
:100FB0002091E8002E772093E80001C0B901FC01E0
:100FC00020E06115710591F18091130A882309F4DD
:100FD00040C0853009F43FC08091E80083FD3DC0EA
:100FE0008091E80082FD2FC08091E80080FFE9CF6A
:100FF0002091F3008091F20090E0922B6115710531
:1010000059F08830910540F424912093F1003196F5
:10101000615071090196F2CF21E0089709F020E0B4
:101020008091E8008E778093E800CBCF2111CCCF60
:101030000AC08091130A882361F0853061F08091A5
:10104000E80083FD0AC08091E80082FFF2CF80E0D3
:10105000089582E0089583E0089581E00895982F2F
:10106000973068F59093E900981739F07091EC008B
:101070002091ED005091F00003C0242F762F50E016
:1010800021FD02C09F5FECCF3091EB003E7F30939B
:10109000EB003091ED003D7F3093ED003091EB009F
:1010A00031603093EB007093EC002093ED0050938F
:1010B000F0002091EE0027FDE5CF80E008958F70CD
:1010C0008093E90081E008950F931F93CF93DF93FE
:1010D000062FEC0110E0101771F16881611103C057
:1010E0001F5F2596F8CF2C81A981BA819B81862F1D
:1010F0008F70873010F080E01FC0223010F442E083
:1011000001C046E0E8E0F0E020E0EA17FB0720F449
:101110002F5FEE0FFF1FF9CF2295207F422B50E467
:10112000959F90011124661F6627661F622B97DF2B
:101130008111D6CFE0CF81E0DF91CF911F910F9148
:1011400008958091140A87FF11C08091E80082FD04
:1011500005C08091130A8111F8CF11C08091E80079
:101160008B770BC08091130A882349F08091E800A7
:1011700080FFF8CF8091E8008E778093E800089593
:101180002091E4003091E50095E64091EC00842F39
:10119000817040FF23C08091E80080FD1DC08091D8
:1011A000130A882399F0853099F08091EB0085FD32
:1011B00011C04091E4005091E5002417350729F350
:1011C000915011F09A01E1CF84E0089582E00895F2
:1011D00083E0089581E0089580E008954091E8005B
:1011E00042FFDDCF08950F931F93CF93DF934BD032
:1011F00052D0C8EDD0E088818F778883888180685D
:10120000888388818F7D888319BC1092130A10927D
:101210000F0A1092110A1092100A00EE10E0F80165
:1012200080818B7F808388818160888342E060E059
:1012300080E015DFE1EEF0E080818E7F8083E2EEDA
:10124000F0E0808181608083808188608083F80104
:1012500080818E7F8083888180618883DF91CF91B8
:101260001F910F910895E8EDF0E080818F7E8083DB
:10127000E7EDF0E080818160808384E082BF81E0DF
:101280008093120AB0CFE8EDF0E080818E7F8083FA
:101290001092E20008951092DA001092E100089591
:1012A0001F920F920FB60F9211242F933F934F93DB
:1012B0005F936F937F938F939F93AF93BF93EF93BE
:1012C000FF938091E10082FF0AC08091E20082FFDB
:1012D00006C08091E1008B7F8093E10050D2809125
:1012E000DA0080FF1BC08091D80080FF17C080917A
:1012F000DA008E7F8093DA008091D90019BC80FFDC
:101300000AC082E089BD09B400FEFDCF81E0809370
:10131000130A1ED803C01092130A1FD88091E1004F
:1013200080FF18C08091E20080FF14C08091E2002D
:101330008E7F8093E2008091E20080618093E200E2
:101340008091D80080628093D80019BC85E080939A
:10135000130A15D28091E10084FF2EC08091E20033
:1013600084FF2AC019BC82E089BD09B400FEFDCF0C
:101370008091D8008F7D8093D8008091E1008F7E8E
:101380008093E1008091E2008F7E8093E200809163
:10139000E20081608093E20080910F0A882311F0BF
:1013A00084E007C08091E30087FD02C081E001C0B6
:1013B00083E08093130AE3D18091E10083FF27C08B
:1013C0008091E20083FF23C08091E100877F8093BA
:1013D000E10082E08093130A10920F0A8091E100ED
:1013E0008E7F8093E1008091E2008E7F8093E20007
:1013F0008091E20080618093E20042E060E080E062
:101400002EDE8091F00088608093F000B8D1FF91CB
:10141000EF91BF91AF919F918F917F916F915F916C
:101420004F913F912F910F900FBE0F901F901895E5
:101430001F920F920FB60F9211242F933F934F9349
:101440005F936F937F938F939F93AF93BF93CF934C
:10145000DF93EF93FF93C091E900CF708091EC0090
:10146000D82FD17080FDD0E81092E9008091F00073
:10147000877F8093F00078941ED01092E9008091CD
:10148000F00088608093F000CD2BCF70C093E9000E
:10149000FF91EF91DF91CF91BF91AF919F918F918C
:1014A0007F916F915F914F913F912F910F900FBE60
:1014B0000F901F9018951F93CF93DF93CDB7DEB792
:1014C000AA970FB6F894DEBF0FBECDBFE4E1FAE0F5
:1014D0008091F10081932AE0EC31F207C9F70E9474
:1014E000C0018091E80083FF32C18091140A90917D
:1014F000150A953009F483C030F49130A9F168F0F1
:10150000933091F124C1983009F4F0C0993009F476
:10151000FCC0963009F01BC194C0803821F082389D
:1015200009F015C108C08091100A9091110A992301
:1015300089F082600FC08091180A8F70873008F0A0
:1015400006C18093E9008091EB0085FB882780F934
:101550001092E9009091E800977F9093E8008093C3
:10156000F1001092F100CDC0282F2D7F09F0EFC0BF
:10157000882319F0823061F0EAC08091160A813028
:1015800009F0E5C0933009F080E08093110A2EC085
:101590008091160A81112AC08091180A8F702FEF4E
:1015A000280F263008F0D3C08093E9002091EB008B
:1015B00020FF1CC0933021F48091EB00806214C0A6
:1015C0009091EB0090619093EB0021E030E0A90155
:1015D00002C0440F551F8A95E2F74093EA0010922B
:1015E000EA008091EB0088608093EB001092E900A4
:1015F0008091E800877F8093E800A3DDA8C0811177
:10160000A6C01091160A1F778091E3008078812B85
:101610008093E3008091E800877F8093E80091DD6C
:101620008091E80080FFFCCF8091E3008068809388
:10163000E300111102C082E001C083E08093130A2D
:1016400086C08058823008F082C08091160A90913E
:10165000170A8C3D53E0950771F583E08A838AE28F
:1016600089834FB7F894DE01139620E03EE051E203
:10167000E32FF0E050935700E49120FF03C0E29580
:10168000EF703F5FEF708E2F90E0EA3010F0C7965A
:1016900001C0C0968D939D932F5F243149F74FBFB2
:1016A0008091E800877F8093E8006AE270E0CE01D5
:1016B000019616DC15C06091180A7091190AAE01E6
:1016C0004F5F5F4F0E94C501BC01892B09F43FC0E9
:1016D0009091E800977F9093E80089819A815EDC81
:1016E0008091E8008B778093E80031C0803879F5ED
:1016F0008091E800877F8093E80080910F0A8093B3
:10170000F1008091E8008E7776CF811120C0809122
:10171000160A9091170A99270297CCF48091E80055
:10172000877F8093E8008091160A80930F0A09DD75
:1017300080910F0A811106C08091E30087FD02C0ED
:1017400081E001C084E08093130A0E94B20180917D
:10175000E80083FF0AC08091E800877F8093E8005B
:101760008091EB0080628093EB00AA960FB6F8940C
:10177000DEBF0FBECDBFDF91CF911F9108950895B9
:10178000CF938091130A882399F0C091E900CF701C
:101790009091EC00892F817090FD80E8C82B109209
:1017A000E9008091E80083FD86DECF70C093E900F8
:1017B000CF910895CF93DF93EC01FC0170968BE0FD
:1017C000DF011D928A95E9F782E08C83898783E0A7
:1017D0008E8761E0CE01019677DC882361F061E0BD
:1017E000CE01069671DC882331F061E0CE010B96C4
:1017F000DF91CF9169CC80E0DF91CF9108950F9375
:101800001F93CF932091130A2430F9F4FC0104892B
:10181000158926893789012B022B032BB1F0C62F9E
:1018200081818F708093E9008091E80085FF04C07A
:10183000C093F10080E00AC08091E8008E77809329
:10184000E8009EDC8823A1F301C082E0CF911F91C4
:101850000F9108952091130A243041F5FC01448929
:10186000558966897789452B462B472BF9F081816D
:101870008F708093E9002091F3008091F20090E056
:10188000922B892B89F09091E8008091E8008E7767
:101890008093E80095FD08C073DC811108C0809139
:1018A000E8008E778093E80080E0089582E0089554
:1018B0002091130A243089F4FC01448955896689F2
:1018C0007789452B462B472B41F021812F702093A0
:1018D000E9002091E80020FDBDCF08952091130A72
:1018E000243019F08FEF9FEF0895FC01448955894A
:1018F00066897789452B462B472BA1F386818F700C
:101900008093E9008091E80082FFECCF2091F30002
:101910008091F20090E0922B892B21F02091F10030
:1019200030E002C02FEF3FEF4091F3008091F200D2
:1019300090E0942B892B29F48091E8008B77809399
:10194000E800C90108950895CF93DF93EC018091D9
:10195000E80083FFA7C0888190E02091180A3091A9
:10196000190A2817390709F09DC08091150A81329C
:1019700061F020F4803209F43EC094C0823209F450
:101980006CC0833209F47EC08DC08091140A813A04
:1019900009F088C08091E800877F8093E8008091FB
:1019A000E80080FFFCCF8C899D89AE89BF89809338
:1019B000F100492F5A2F6B2F77274093F100AD018B
:1019C000662777274093F1008B2F9927AA27BB27FB
:1019D0008093F100888D8093F100898D8093F100D0
:1019E0008A8D8093F1008091E8008E778093E800E3
:1019F000DF91CF91A6CB8091140A813209F052C0B9
:101A00008091E800877F8093E8008091E80082FD64
:101A100005C08091130A8111F8CF44C03091F100C4
:101A20002091F1009091F1008091F1003C8B2D8B81
:101A30009E8B8F8B8091F100888F8091F100898F30
:101A40008091F1008A8F8091E8008B778093E80085
:101A500078DBCE01DF91CF9176CF8091140A81326D
:101A600009F58091E800877F8093E8006ADB809128
:101A7000160A9091170A998B888BCE01DF91CF912E
:101A80000C94C4018091140A813261F48091E800C1
:101A9000877F8093E80055DB6091160ACE01DF91C5
:0E1AA000CF9151CFDF91CF910895F894FFCFF1
:101AAE0000831000000104100000018208000001F4
:101ABE00000000000000000000000086010100068A
:101ACE0001010006010000000000004A5441474990
:101ADE004345206D6B49490065742673554D564E2E
:101AEE0020676F72504D564E65736172454D564E5E
:101AFE000000891112239B322446AD573665BF7400
:101B0E00488CC19D5AAFD3BE6CCAE5DB7EE9F7F8AF
:101B1E008110080193331A22A5562C47B7753E64DF
:101B2E00C99C408DDBBF52AEEDDA64CBFFF976E88F
:101B3E0002218B30100299132667AF763444BD55BF
:101B4E004AADC3BC588ED19F6EEBE7FA7CC8F5D96F
:101B5E0083310A2091121803A7772E66B5543C459F
:101B6E00CBBD42ACD99E508FEFFB66EAFDD874C94F
:101B7E0004428D5316619F702004A9153227BB367F
:101B8E004CCEC5DF5EEDD7FC6888E1997AABF3BA2F
:101B9E0085520C4397711E60A1142805B3373A265F
:101BAE00CDDE44CFDFFD56ECE9986089FBBB72AA0F
:101BBE0006638F7214409D512225AB343006B9173F
:101BCE004EEFC7FE5CCCD5DD6AA9E3B8788AF19BEF
:101BDE0087730E6295501C41A3352A24B11638071F
:101BEE00CFFF46EEDDDC54CDEBB962A8F99A708BCF
:101BFE00088481951AA793B62CC2A5D33EE1B7F0FF
:101C0E004008C919522BDB3A644EED5F766DFF7CAE
:101C1E00899400859BB712A6ADD224C3BFF136E0DE
:101C2E00C1184809D33B5A2AE55E6C4FF77D7E6C8E
:101C3E000AA583B4188691972EE3A7F23CC0B5D1BE
:101C4E004229CB38500AD91B666FEF7E744CFD5D6E
:101C5E008BB502A499961087AFF326E2BDD034C19E
:101C6E00C3394A28D11A580BE77F6E6EF55C7C4D4E
:101C7E000CC685D71EE597F42880A1913AA3B3B27E
:101C8E00444ACD5B5669DF78600CE91D722FFB3E2E
:101C9E008DD604C79FF516E4A9902081BBB332A25E
:101CAE00C55A4C4BD7795E68E11C680DF33F7A2E0E
:101CBE000EE787F61CC495D52AA1A3B03882B1933E
:101CCE00466BCF7A5448DD59622DEB3C700EF91FEE
:101CDE008FF706E69DD414C5ABB122A0B99230831E
:101CEE00C77B4E6AD5585C49E33D6A2CF11E780FCE
:00000001FF
